:020000040000FA
:10300000A0150020F95701000158010085180100A2
:1030100000000000000000000000000000000000B0
:103020000000000000000000000000000558010042
:10303000000000000000000007580100C71A01004E
:103040007D1801000B5801000B5801000B580100BE
:103050000B5801000B5801000B5801000B580100E0
:103060000B580100F7E000000B5801000B5801005D
:103070000B5801003BE400000B58010099190100B6
:103080000B5801000B5801000B5801009B18010060
:103090008F1901000B5801000B5801000B5801005B
:1030A0000B5801000B5801000B5801000B58010090
:1030B0000B5801000B5801000B5801000B58010080
:1030C0000348854613F032F800480047A93700004E
:1030D000A01500200020FE490870FE4908707047C6
:1030E00010B51621FC4801F072F91723FA4AFB4982
:1030F000A02009F019FC1421F94800F095FDF849C9
:10310000087515230A46F749A02009F00DFCF6487A
:10311000C078C00905D10723F44AF549A02008F07A
:1031200095FB10BD10B50DF0E0FAF2480DF0C4FAB1
:103130000020F149C86088600860132000F04EFB51
:103140000020EE49C86188610860ED48006BED49D8
:103150000840EB4908630F2000F040FB0020EA49DB
:103160004861EA490860E8494860E548006BE5497C
:103170000F390840E2490863092000F02FFB0020C6
:10318000E3494861E3490860E1494860DC48006B75
:10319000DC497F390840DA4908630C2000F01EFB47
:1031A0000020DD494861DB490860DB494860D448BC
:1031B000006BD449FF390840D14908630D2000F065
:1031C0000DFB06F06EFE0020D4498860D448D34938
:1031D000803188610020D3490860C948C06A400432
:1031E000400CC749C8620422CF49D04800F05AFBBE
:1031F0001421CF4800F018FDCD4908751522CB48A1
:10320000001D00F04FFB0822B849C8482E3000F0DE
:1032100049FB3621C54800F007FDC44920318875B7
:103220003723C24AFF21C731A02008F00FFBC14855
:103230000DF042FAAC48C078C00912D10123BE4A51
:10324000BE49A02008F0C6FABB480078002808D183
:10325000A548C078402188434030A349C87011F088
:1032600071FE10BDA3480DF027FA8120A4494860E3
:103270000020C86109208002C86200200863B049AC
:10328000086120200860486000208860142000F059
:103290009EFA0DF013FE0DF028FA0020A9490861EE
:1032A000A94908604860A9490860A94908604860C0
:1032B000984908604860954908600AF0BFF80DF029
:1032C00073FA9C480DF0F8F962B65CE00020A14961
:1032D000086130BF0DF03FFA9F48A0494860A04800
:1032E0004069C007C00F17D000240BE09A489B49E3
:1032F00048609B48406909210840092800D003E044
:10330000601CC4B2322CF1DB00BF322C04D100208F
:10331000944908700DF02FFA9248007800281DD1CA
:1033200000240BE08C488D4948608D484069092194
:103330000840092800D003E0601CC4B2642CF1DB13
:1033400000BF642C0AD100BFBFF34F8F864881496C
:10335000C860BFF34F8F00BF00BFFEE70020784971
:10336000086120200860486000208860142000F078
:103370002EFA0DF0A3FD01205F490860042048608B
:103380000020C8608860A1E710B500240DF00CFA99
:1033900000BF0EE07248406909210840092803D1A6
:1033A00001200DF095F906E001200DF091F9601C67
:1033B000C4B20A2CEEDB00BF0A2C01D1FFF752FF8A
:1033C00010BD10B5002067490870684912F094FAE2
:1033D0006649091D002012F08FFA01206449087027
:1033E00000206449087041488078634908703F486C
:1033F000407862490870002061490870614908708E
:1034000061490870384880780421884336498870BB
:1034100008468078082188433349887008468078B8
:1034200040218843304988700846807820218843AD
:103430002D4988700846807840084000887008460A
:10344000C078022188432849C8700846C078042102
:103450008843001D2449C8700846C07840084000D1
:10346000401CC8700846C078802188431E49C87037
:1034700008468078102188431B4988700020434902
:103480000870434908604349088043494870087000
:1034900042490880424908803F4988704149087084
:1034A0000F204149087000204049087040490870C9
:1034B0000D484078082188430B4948700846007839
:1034C000402188434030084908703A48007873E04A
:1034D0000100002002000020530700205A240000B1
:1034E000AA0E0020D2130000290000201F00002097
:1034F000071500005AA5000000E000400010004041
:1035000000F00040FEFF00000050004000120140AB
:10351000008000400014014000900040003801404D
:10352000A627000000160140590100205402002087
:10353000800E0020A55A00008B020020B716000064
:1035400000C0004000E000E0001001400011014018
:103550000013014000ED00E03FAA00000000014020
:1035600000F40040D20100200400FA055D010020B3
:103570009E010020A00100206D0100206E010020AE
:10358000E9000020EA000020EB0000207700002086
:10359000180200209A00002094000020A4000020BF
:1035A000140200209F000020380200203902002071
:1035B0003A020020DA000020082188430830A74999
:1035C000087008460078102188431030A34908701D
:1035D00008460078202188432030A049087008461A
:1035E00000784021884340309C4908703C209C4929
:1035F000086010BD10B50DF0F3F8002805D0FFF7F6
:103600006FFDFFF78FFDFFF72DFE10BD10B595483C
:103610000078002814D000209249087001209249B7
:10362000087010F07EFC08F06DFF0BF039F88C4844
:103630000068002804D08A480068401E8849086055
:1036400089480078012809D188490A780978491CF5
:10365000864B19709100864A505880478548C0783B
:10366000802188438349C87010F024FD0FF085FE47
:1036700010BD70B572B655200DF03BF8FFF784FE13
:103680007D4D7E48854200D90EE02802000A401E8A
:103690007B4948610321081F00F0A8F80020784901
:1036A00088610720086100BF0DF01FF862B601F0C5
:1036B00001F80DF079F808F023F908F083F90DF01E
:1036C000AAF8002406E00DF010F864200DF000F8D0
:1036D000601CC4B2642CF6DB02E064200CF0F8FF3E
:1036E0000DF07EF80028F8D10DF0B4F80DF0FEF8DA
:1036F00009F072FE0DF070FB0AF01EFE09F01FFFCC
:10370000002406E00CF0F1FF64200CF0E1FF601CE7
:10371000C4B2322CF6DB552006F06DFA06F0AEFC92
:10372000FFF74FFE09F081FA0CF0DFFF07F03BF8DE
:1037300007F027FB09F06AFF0FF012F94D480078F7
:1037400004218843001D4B49087008460078042175
:103750008843001D474908700846007910218843B6
:10376000103044490871002403E010F0A3FC601CF1
:10377000C4B20C2CF9DB002406E00CF0B6FF642088
:103780000CF0A6FF601CC4B2322CF6DB3348007884
:1037900008218843083031490870084600784008FD
:1037A0004000087062B670BDFFF763FF0EE00CF0DA
:1037B0009CFFFFF71FFF10F0F6F9FFF727FF0AF055
:1037C000EEFF07F03CFC0CF0D3FB62B6EFE7C2065D
:1037D000D20E012191402B4A11607047C206D20ED1
:1037E00001219140274A80321160704710B50028AE
:1037F00019DA254A03071B0F083B9B089B00D25888
:103800008307DC0EFF23A3409A438B071B0E84071C
:10381000E40EA3401A431C4B0407240F083CA408E1
:10382000A4001A5118E0174A03231B02D218830878
:103830009B00D2588307DC0EFF23A3409A438B07DB
:103840001B0E8407E40EA3401A430E4B03242402EC
:103850001B198408A4001A5110BD0000DA000020D2
:103860003C000020CF0100200200002001000020C9
:10387000106201002900002065260000FFFFFF0004
:1038800000E000E000E100E01CED00E07047704760
:1038900010B501E00170401C1346541EE2B2002B2B
:1038A000F8D110BD10B503E00B780370491C401C23
:1038B0001346541EE2B2002BF6D110BD10B503E042
:1038C0000B780370491C401C1346541EE2B2002BB7
:1038D000F6D110BD10B5034607E018780C78A04269
:1038E00001D0AA2010BD5B1C491C1046541EE2B238
:1038F0000028F2D15520F5E710B5034607E0187807
:103900000C78A04201D0AA2010BD5B1C491C1046B7
:10391000541EE2B20028F2D15520F5E7024607E036
:103920001078002801D0AA207047481EC1B2521C4E
:103930000029F5D15520F7E770B50446049D15E040
:1039400020781678B04201DDAA2070BD2078167864
:10395000B04201DA5520F8E7002901DD641C00E0DF
:10396000641E002B01DD521C00E0521E28466E1E14
:10397000F5B20028E4D1FF20E7E730B50246002089
:1039800009E0135C4C1E241A145D14544C1E241AB6
:103990001355441CE0B2CD0F6D186D108542F0DC5C
:1039A00030BD014608110A2250430A07120F801841
:1039B000C0B2704738B504460A21204611F041FFD5
:1039C000C1B26846017000780A214843201AC1B28A
:1039D0006846417000780101684640780818C5B211
:1039E000284638BD0146487800117D22D200504358
:1039F0004A781207120F64235A438218087800117C
:103A00000A23584310180A781207120F80187047BB
:103A100038B504466421204611F0FDFE0D462846C7
:103A2000FFF7C8FF694608706421204611F0F3FED5
:103A300004466421204611F0EEFE0D462846FFF7AD
:103A4000B9FF014668464170008838BDF0B50546AB
:103A50000026012700230AE0E85CFFF7A2FF0446E6
:103A600038466043861964204743581CC3B2042B70
:103A7000F2DB3046F0BDF8B504460E46154610E0C0
:103A80006421304611F0C7FE0F463846FFF792FF1B
:103A90002070641C6421304611F0BDFE0646681E8D
:103AA000C5B2002DECD1F8BD01780907090F09292D
:103AB00005DB0178F02211401031017002E001783D
:103AC000491C01700178992901DD002101707047BE
:103AD00001780907090F05D101780922114310392E
:103AE000017002E00178491E01700178992901DD19
:103AF00099210170704730B503460D4601240AE054
:103B0000012C07D100241878992800DB01241846DD
:103B1000FFF7CAFF5B1C2846691ECDB20028EFD113
:103B2000204630BD30B503460D4601240AE0012C85
:103B300007D100241878002800D101241846FFF787
:103B4000C7FF5B1C2846691ECDB20028EFD1204676
:103B500030BD024607E01078002801D000207047F1
:103B6000481EC1B2521C0029F5D10120F7E710B55B
:103B700001460823002205E0C807C00F01D0D0434A
:103B8000C2B2491018465C1EE3B20028F4D1D00737
:103B9000C00F01D0012010BD0020FCE701780A070A
:103BA000120F0F2A01D1F9221140017070470EB592
:103BB00003469978009159780191197802916846E5
:103BC000007A401EC1B2029102A8FFF7E7FF6846E3
:103BD000007A18706846007A002800D00EBD68464A
:103BE0000079401EC1B2019101A8FFF7D7FF6846D6
:103BF000007900280BD112205870122101916846DB
:103C00000078401EC1B200916846FFF7C7FF6846C2
:103C100000789870FE4968460079085C187068461C
:103C20000079587000BFD9E730B502460C46002A2B
:103C300000D130BD0021002305E01578521C681822
:103C4000C1B2581CC3B2A342F7DB0846F1E710B576
:103C50000246501EEE4C235C022A09D10846CC17BE
:103C6000A40F2418A410A4000C1B01D1581CC3B22B
:103C7000184610BDF7B506460F46062500240EE08F
:103C8000A007800F02D0681CC5B201E0A81CC5B215
:103C90000721284611F0D5FDCDB2601CC4B2B44254
:103CA000EEDB012412E0601ED949085C4019C5B260
:103CB000022C04D1B007800F01D1681CC5B20721C6
:103CC000284611F0BEFDCDB2601CC4B2BC42EADB96
:103CD0000298401E4019C5B20721284611F0B1FDD7
:103CE000C8B2FEBD10B503469818431E8818411E81
:103CF0000EE018780C78A04201DD012010BD187884
:103D00000C78A04202DA0020C043F7E75B1E491E90
:103D10001046541EE2B20028EBD100BFEEE7BD49C9
:103D20000978102291431031BA4A1170042806D044
:103D3000082808D010280AD0202810D10BE0012133
:103D4000B54A117016E00221B34A117012E0032146
:103D5000B14A11700EE00421AF4A11700AE0AD497A
:103D60000978102291431031AA4A11700221AA4AFF
:103D7000117000BF00BF704708B5A6480078C006A4
:103D8000C00F2BD0A5480078002827D1A44948614E
:103D900050204860A04800788000A2490858A049F7
:103DA000C8605A2048600D20012181409E4A116060
:103DB00000BF9948017802208840C1B2684601706E
:103DC0000178417002236A469849A02008F0ACFDB2
:103DD00090480078102188438E49087008BDF8B5D6
:103DE00005460026924F012424070AE001E02D1B1E
:103DF000F619A542FBD20A21384611F00CFD074600
:103E00002409002CF2D13046F8BDF8B5054600264D
:103E1000874C01273F070AE001E02D1BF619A54258
:103E2000FBD20A21204611F0F6FC04463F09002C83
:103E3000F2D13046F8BD10B50346002005E0541E0F
:103E4000241A0C5D1C54441CE0B29042F7DB10BDF8
:103E5000F7B586B015460024002600200590049092
:103E6000002702900390009001902A4602A806992C
:103E7000FFF718FD00BF68E00020059000241CE05B
:103E80000020049002A8005D80210840802801D114
:103E90000120049002A8005D4006000E02A908550A
:103EA0000598012805D102A8005D0121084302A957
:103EB000085504980590601CC4B2AC42E0DB0024B5
:103EC0001CE0002004906846005D802108408028A6
:103ED00001D1012004906846005D4006000E69464D
:103EE00008550598012805D16846005D0121084361
:103EF0006946085504980590601CC4B2082CE0DBA4
:103F0000E800401EB0421ED000241AE06846005D62
:103F10000007000FC71C072F04D96846005DC01CAE
:103F2000694608556846005DF0210840074630376D
:103F3000702F04D96846005D303069460855601C12
:103F4000C4B2082CE2DB701CC6B2E800B04293DCBD
:103F50002A4669460798FFF7A5FC09B0F0BDF7B5FA
:103F600086B0154600240026002005900490002706
:103F700002900390009001902A4668460699FFF748
:103F800091FC00BF7DE0002005902C461EE0002043
:103F90000490601E6946085CC007C00F01D0012074
:103FA0000490601E6946085C4110601E6A46115408
:103FB0000598012806D1601E6946085C80210843E7
:103FC000611E505404980590601EC4B2002CDEDCC3
:103FD000082431E000200490601E02A9085CC0079C
:103FE000C00F01D001200490601E02A9085C41109E
:103FF000601E02AA11540598012806D1601E02A96C
:10400000085C80210843611E50540498059011E01B
:1040100038620100290000204200002043000020F7
:10402000009000404462010000E100E03E1B0000FF
:1040300080969800601EC4B2002CCBDCE800401EC5
:10404000B0421CD0002418E06846005D07073F0F0F
:10405000072F04D96846005DC01E694608556846AA
:10406000005DF02108400746702F04D96846005DC6
:10407000303869460855601CC4B2082CE4DB701C5B
:10408000C6B2402E00DA7EE72A4602A90798FFF75B
:1040900009FC09B0F0BD10B503469818431E8818F6
:1040A000411E0EE018780C78A04201DD012010BD01
:1040B00018780C78A04202DA0020C043F7E75B1EB4
:1040C000491E1046541EE2B20028EBD100BFEEE7B5
:1040D000F7B581B003460C46002200210020009075
:1040E000002500261BE09D5CA65CA8194118284607
:1040F000F02738403740C019C0B20090F020084087
:10410000009FB84203D10807000F092800D9891D74
:10411000A02900D360319954090A501CC2B20398F7
:10412000471EFFB203970028DDD1C8B204B0F0BD2E
:10413000F7B586B0154600240026002005900490AF
:10414000002702900390009001902A4602A8069949
:10415000FFF7A8FB00BF68E00020059000241CE0EA
:104160000020049002A8005D80210840802801D131
:104170000120049002A8005D4006000E02A9085527
:104180000598012805D102A8005D0121084302A974
:10419000085504980590601CC4B2AC42E0DB0024D2
:1041A0001CE0002004906846005D802108408028C3
:1041B00001D1012004906846005D4006000E69466A
:1041C00008550598012805D16846005D012108437E
:1041D0006946085504980590601CC4B2082CE0DBC1
:1041E000E800401EB0421ED000241AE06846005D80
:1041F0000007000FC71C072F04D96846005DC01CCC
:10420000694608556846005DF0210840074630378A
:10421000702F04D96846005D303069460855601C2F
:10422000C4B2082CE2DB701CC6B2E800B04293DCDA
:104230002A4669460798FFF735FB09B0F0BD0246EC
:1042400005E01378521C002B01D00020704708466F
:104250004B1ED9B20028F4D10120F7E710B5024671
:10426000012019E0012816D11378992B02D10023DF
:10427000137010E0002013781B071B0F092B07D1C8
:104280001378103313701378F0242340137002E076
:1042900013785B1C1370521C0B464C1EE1B2002BB2
:1042A000E0D110BDF7B581B003460C4600220021D5
:1042B00000200090002500261BE09D5CA65CA8194C
:1042C00041182846F02738403740C019C0B2009046
:1042D000F0200840009FB84203D10807000F0928CA
:1042E00000D9891DA02900D360319954090A501CB6
:1042F000C2B20398471EFFB203970028DDD1C8B2AF
:1043000004B0F0BDF7B583B007461546002400267B
:104310002A4668460499FFF7C5FA00BF07E06846D9
:10432000005D9921081A69460855601CC4B2AC4268
:10433000F5DB29466846FFF791FF06462A4669469F
:104340003846FFF7AFFF0643002E02D1012006B02A
:10435000F0BD0020FBE778B502460B460020009038
:1043600000211AE0545C002513E068460088604094
:10437000C007C00F06D06E4630884010FB4E70401C
:10438000009003E068460088461000966408681CA8
:10439000C5B2082DE9DB481CC1B29942E2DB684690
:1043A000008878BD30B504460D4629462046FFF703
:1043B000D0FB012801D1552030BD29462046FFF70A
:1043C000CAFF002801D05520F6E7AA20F4E710B56F
:1043D000002203E00478401CA318DAB20B464C1EFE
:1043E000E1B2002BF6D1027010BD10B502460B46AB
:1043F000002103E01478521C6018C1B218465C1EFC
:10440000E3B20028F6D11078884201D1012010BD16
:104410000020FCE702460CE010780007000F092896
:1044200004DC1078F0231840902801DD002070474C
:10443000521C08464B1ED9B20028EDD10120F6E7E8
:1044400070B505460E46144631462846FFF7CDFFA7
:10445000002800D170BD21462846FFF7DBFFF9E7B1
:104460000246002A01D1012070470CE010780007B5
:10447000000F092801DD0120F6E71078992801DDF9
:104480000120F1E7521C08464B1E99B20028EDD1DD
:1044900000BFE9E710B5B6480078C007C00F08D0E4
:1044A000B44811F01FFA01214902884201D90120C4
:1044B00010BD0020FCE710B51421AF48FFF795FFB1
:1044C00000280FD11423AC4A13210902A02008F0C0
:1044D0005DFA002806D01523A74AFF21CB31A02082
:1044E00007F078F91421A548FFF79EFBA349097D41
:1044F000884205D01423A14AA149A02008F046FA19
:104500001A21A048FFF790FB9E49897E884205D07A
:104510001A239C4A9C49A02008F038FA162211461A
:104520009A48FFF78DFF002817D11723974A98491B
:10453000A02007F04FF9162211469448FFF780FF9C
:1045400000280AD11723914A9249A02007F042F986
:10455000162211468D48FFF773FF10BD10B51622C5
:1045600011468A48FFF76CFF002817D11723874AA6
:104570008749A02007F02EF9162211468348FFF73D
:104580005FFF00280AD11723804A8249A02007F044
:1045900021F9162211467D48FFF752FF10BD70B574
:1045A0007D48C0788007C00F55D07B48C078022175
:1045B00088437949C8700846C0784007C00F08D0C2
:1045C0000846C078042188437349C8700CF034FA57
:1045D00041E07248807972498979884211D16F48E7
:1045E00040796F49497988420BD16C4800796C4910
:1045F0000979884205D16948807869498978884273
:1046000009D06548C07840084000401C6249C87025
:104610000CF012FA1FE061494878FFF7C2F905462D
:104620005F494878FFF7BDF90446601D854202DC0A
:10463000681D844209DD5848C07840084000401C8D
:104640005549C8700CF0F8F905E05348C0784008A7
:1046500040005149C87070BD10B552480068262806
:1046600002D026204F4908604E480069002802D039
:1046700000204C4908614B484068202802D0202087
:10468000484948600CF01AFC47480068032802D0EB
:1046900003204549086044488068022802D002206F
:1046A0004149886040484068082802D008203E49B7
:1046B000486010BD10B53D4800683D4908403B4981
:1046C00008603C480BF0F8FF384880680121084337
:1046D0003649886008460069354908403349086111
:1046E00035480BF0E9FF354800683149C91F0840DB
:1046F00032490860324800682D490B39084030497A
:1047000008602C480BF0D8FF2D4880680C21084326
:104710002B498860084600692549C91E0840284978
:104720000861084600692249C91F084024490861F8
:10473000224880681E49C91F0840204988600846F1
:10474000C0681B49C91F08401C49C8601D488068D3
:1047500017493F3908401B4988600846C06814491A
:104760003F3908401749C86010BD000008840000A8
:10477000D5000020380E0020800E0020AA0E002058
:10478000D2130000D7060020771A0000530700203C
:104790005A2400005A370000290000201F00002082
:1047A000D301002000C0004000E00040001601409E
:1047B000FEFF0000A55A00005AA5000000140140A9
:1047C000001301400010014010B56A4880686A4B30
:1047D0001840684B98601846C068674B1840654B96
:1047E000D860184600690823184205D0634800784D
:1047F000401C624B187004E061480078401C604B1C
:1048000018705F4800785D4B1B78C018C2B20A2A46
:1048100062DB5B480078002822DD0020594B1870CD
:1048200059480078FB2804DA57480078401C564B5A
:10483000187055480078782805DD54480078102312
:104840009843524B187050480078C8282BDD5048C8
:1048500000780007C00F01D1002124E0012122E0EF
:104860000020494B187047480078FB2804DA454877
:104870000078401C434B187042480078782806DDC9
:1048800042480078102398431030404B18703D4840
:104890000078C82807DD3E4800780007C00F01D027
:1048A000002100E001213B484078202398434B0140
:1048B000202423401843374B587034480078802315
:1048C0009843CB01802423401843304B18700020BC
:1048D0002B4B1870294B18702F480078401C2E4B1A
:1048E000187018460078FA2818DD002018702B4838
:1048F0000078401C294B187018460078F0280DDD10
:1049000000201870234840788006C00F06D0244845
:104910000078082398430830214B1870002010BD00
:1049200010B5204880681449383908401D4988600E
:104930000846C0681049383908401A49C860084616
:1049400000694021084210D117480088401C1649D0
:10495000088008460088FF21F531884208DD0020E4
:10496000114908800BF042FB02E000200E4908804C
:1049700010BD000000140140F7FF000007000020F8
:10498000060000200900002008000020730100201C
:10499000D9000020D70000200500002004000020DE
:1049A000DA000020001001400A00002070B5014626
:1049B000002000220024112500BF1CE02B19DE0F6F
:1049C000F618F605320E904213D0104643005B1CD9
:1049D0009B00FD4EF3588B4200D170BD43005B1C21
:1049E0009B00F94EF3588B4201D2044603E0054682
:1049F00001E01120F1E7E1E71FB504460020019036
:104A0000217868460171617841717D21C900019862
:104A100048430190002000901C2004F002FC00900C
:104A2000EA49009810F0F7FE00900099019810F004
:104A3000F2FE81B203911121029169460989490070
:104A4000E34A8818022203A9FEF72CFF1FBD7FB599
:104A500004460D46164600200190217868460171F3
:104A600061784171A1788171E178C1717D21C900BE
:104A700001984843019000200090284604F0D1FBA3
:104A800000900121C9070098884202D30098404253
:104A90000090D049009810F0BEFE00900099019857
:104AA00010F0B9FE81B20391029669460989490066
:104AB000C74A8818022203A9FEF7F4FE7FBD7CB521
:104AC00005460C462078042801DD01207CBD2078B5
:104AD000002809D16078002806D1A078002803D1E9
:104AE000E078002800D1F1E72078022811D1182DB4
:104AF0000DD01A2D0BD01B2D09D01C2D07D0142D35
:104B000005D0192D03D01E2D01D00120DEE7B24EB5
:104B100011E0207804280CD1182D07D0142D05D0D1
:104B2000192D03D01C2D01D00120CFE7AA4E761DF0
:104B300001E00120CAE7182D05D1207821798842AB
:104B400001DD0120C2E7B1B205236A46A02006F0CC
:104B500041FE04216846FFF767F8694609798842F3
:104B600012D013200002301881B205236A46A0201B
:104B700006F030FE04216846FFF756F869460979C9
:104B8000884201D00120A1E7684600782178884258
:104B90000ED1684640786178884209D168468078AD
:104BA000A178884204D16846C078E178884201D073
:104BB00002208BE7002089E770B505460E460024E9
:104BC000012D05D1042231468448FEF76BFE04E036
:104BD000042231468148FEF765FE172280497F484E
:104BE0001B38FEF75FFE17227D497E48FEF75AFE0E
:104BF00004227D497948FFF775F8002801DB012080
:104C000070BD0422754908317448FFF791FA0823F2
:104C1000764A7749A02007F0B9FE04227349091D9E
:104C2000081FFFF75FF8012836D104226B490831CD
:104C30006E48001DFFF736FB04226C49091D081F52
:104C4000FFF750F801280BD1012408216748FFF72E
:104C5000BEFB0923654A6649A02007F065FE1CE0FB
:104C6000022404226149091D6248FEF71BFE04224A
:104C70005E496048FFF746FB04225C49081DFEF7C9
:104C800011FE08215948FFF7A2FB0923574A58494A
:104C9000A02007F049FE00E00024002C3DD10422B2
:104CA0004E4908314F48801CFFF7FCFA07224C4957
:104CB0004C48FFF717F8401C01D10120A0E707225C
:104CC0004849C91DC81FFFF70DF8401C0AD107222B
:104CD0004449C81DFFF716FB072200214148FEF793
:104CE000D7FD0BE007223F49C91DC81FFFF70AFB8C
:104CF000072200213B48C01DFEF7CAFD04213E48A3
:104D0000FFF79DFA002847D104223B493548801C13
:104D1000FEF7E8FF01283FD172E7022C3CD10422C4
:104D200034493048801CFFF7BDFA07222C492D4832
:104D3000FEF7D8FF401C01D1012061E70722294975
:104D4000C91DC81FFEF7CEFF401C0AD10722254906
:104D5000C81DFFF7D7FA072200212248FEF798FD69
:104D60000BE007221F49C91DC81FFFF7CBFA072216
:104D700000211C48C01DFEF78BFD04211E48FFF7D3
:104D80005EFA002808D104221B491648801CFEF751
:104D9000A9FF012800D133E70423114A921C1449CA
:104DA0002931A02006F052FD04220C490831134895
:104DB000FEF778FD002C25D104220849083110485F
:104DC000FFF770FA25E0000088620100102700005C
:104DD000FE0D0020E8030000501B00009C0700208F
:104DE000530700206A070020826201004A07002062
:104DF00051240000CF070020E90600207C0000209D
:104E000080000020022C04D10422FE49FE48FFF756
:104E100049FA0421FC48FFF7DAFA0523FA4AFB496C
:104E2000A02007F081FD0421F948FFF717FA1621A9
:104E3000F7480E38FFF7CBFA1723F54A0E3AF34935
:104E40000E31A02007F070FD1623F24AEF490E3113
:104E5000A02007F09BFDF048807804218843001DC6
:104E6000ED4988700846807840218843EA49887077
:104E70000EF064F80020C3E670B504460D46012C20
:104E800005D104222946E548FEF70CFD04E0042282
:104E90002946E248FEF706FD1722DE49DF481B38A7
:104EA000FEF700FD1722DB49D9480E38FEF7FAFC61
:104EB0000422DB49D948FEF715FF002801DB012059
:104EC00070BD0422D5490831D448FFF731F90421D7
:104ED000CF480C38FFF7B3F9002809D10422CF4995
:104EE0000831C948FEF7FEFE002803DA0120E7E793
:104EF0000120E5E70422C9490831C5480C38FEF70E
:104F0000F1FE00280DDB0422C4490831C0480C38EA
:104F1000FFF7F8F907220021BD48C01FFEF7B8FCD3
:104F200017E00422BD490831B648FEF7BBFC042255
:104F3000B7490C39B348FFF7E5F90422B149B44841
:104F4000401FFFF7AFF907220021B1480E38FEF7E6
:104F50009FFC0423AF4A921CAC492E31A02006F0DE
:104F600075FC0422AD490831AE48FEF79BFC0422D3
:104F7000AA490831A448FEF7B5FE002806DB042242
:104F8000A6490831A048FFF7BDF904E00522002139
:104F90009D48FEF77DFC04219B48FFF718FA052386
:104FA000994A9A49A02007F0BFFC04219848FFF7CE
:104FB00055F904219648001DFFF750F91621944831
:104FC0000E38FFF704FA1723914A0E3A8F490E3133
:104FD000A02007F0A9FC16238E4A8C490E31A02090
:104FE00007F0D4FC8C48807804218843001D8A494E
:104FF0008870084680784021884340308649887010
:105000000DF09CFF00205BE770B5044604212046AC
:105010001030FFF714F9002804D1022082490870EB
:10502000002070BD172200217C481B38FEF730FCA1
:105030001722002176480E38FEF72AFC042221466A
:1050400008317A48FEF72EFC04227449083177486B
:10505000FFF76EF80422214610317448FEF722FC57
:1050600004226E49091F7148FFF762F804226B4958
:10507000091F6748FEF716FC042200216448001D42
:10508000FEF706FC04226549083161480C38FEF73A
:1050900009FC0422614908316248FEF703FC04223E
:1050A0005E4908315848FEF7FDFB04225B49083190
:1050B0005F48FEF7F7FB042200215D48001DFEF764
:1050C000E7FB08215A48FFF782F90923584A4F495C
:1050D000491DA02007F028FC04214B48FFF777F971
:1050E0000523494A4949A02007F01EFC16214848DB
:1050F0000E38FFF76CF91723454A0E3A43490E3133
:10510000A02007F011FC1623424A40490E31A0208E
:1051100007F03CFC00204749087001230A46464935
:10512000A02006F093FB152200214448FEF7B0FBB7
:1051300014214248FEF778FD4049087515230A46B8
:1051400013210902A02007F0EFFB042200213C48B4
:10515000FEF79EFB04223A493A48FEF7A3FB2A22B7
:1051600036493848001DFEF79DFB08223649354870
:105170002E30FEF797FB36213248FEF755FD3149B8
:105180002031887537232F4AFF21C731A02006F030
:105190005DFB152200212D48FEF77AFB15232B4AD3
:1051A0002B49A02007F0C0FB0BF09FFA80220021C2
:1051B0002848FEF76DFB0A2200212748FEF768FB0E
:1051C0000723244A09218902A02007F0ADFB00250E
:1051D0000AE0E80131225202811880231D4AA020F2
:1051E00006F034FB681CC5B2122DF2DB8023194A8D
:1051F0001A49A02006F02AFB3723164A17498031A6
:10520000A0202DE0CF070020800000204C240000CB
:105210007807002053070020290000209C07002069
:10522000826201007C000020930000207F040020A7
:105230004A0700207700002026150000800E00207D
:1052400059010020540200201F000020AA0E002057
:10525000D21300008B0200203C0200207E6A000076
:1052600006F0F4FA0423FE4AFE49A02006F0EEFA06
:1052700001200DF017FBFC48807804218843001DB5
:10528000F94988700DF05AFE0120CAE670B504464F
:105290000622F64920460830FEF724FD002804D0F7
:1052A0000120F3490870002070BD12220021F1484E
:1052B000FEF7EEFA12220021EF48FEF7E9FA042287
:1052C00021461431ED48FEF7EDFA0422E949233175
:1052D000EA48FEF72DFF04220021E848FEF7D8FA3D
:1052E000022221461831E548FEF7DCFA0422E149A2
:1052F0001731E248FEF71CFF0422DE491731DE4871
:105300000E30FEF7CFFA04220021DB481230FEF700
:10531000BFFA0422D7492331D748801CFEF7C2FACE
:105320000422D4492331D648FEF7BCFA0422D149DD
:105330002331D448FEF7B6FA04220021D248FEF702
:10534000A7FA04220021D048001DFEF7A1FA082187
:10535000CD48FFF73CF80923CB4AC2492939A020A0
:1053600007F0E2FA0421C748FFF731F80523C54AE0
:10537000BC492E39A02007F0D7FA1621BE48FFF706
:1053800026F81723BC4AB7492039A02007F0CCFAE9
:105390001623BE4AB3492039A02007F0F7FA0020AF
:1053A000BB49087001230A46BA49A02006F04EFA0C
:1053B00006F0E1FA042221461A31B048FEF772FAEB
:1053C0000422B549AD48FEF7B3FE0422B249B34802
:1053D000FEF768FA0422B049B048001DFEF762FAF1
:1053E0001421AE48FEF720FCAC49087515230A4687
:1053F00013210902A02007F097FA04220021A848EF
:10540000FEF746FA0422A649A648FEF74BFA2A22DE
:10541000A249A448001DFEF745FA0822A249A14866
:105420002E30FEF73FFA36219E48FEF7FDFB9D49E0
:105430002031887537239B4AFF21C731A02006F011
:1054400005FA802200218648FEF722FA0A2200216E
:105450009648FEF71DFA0A23814A09218902A020F5
:1054600007F062FA00250AE0E801312252028118B1
:1054700080237B4AA02006F0E9F9681CC5B2122DF2
:10548000F2DB8023764A8A49A02006F0DFF9372331
:10549000734A87498031A02006F0D8F901200DF029
:1054A00001FA0DF04BFD0120FEE670B50446062121
:1054B00020461830FEF7AEFF002804D108206C49C2
:1054C0000870002070BD082221460C317948FEF793
:1054D000E9F90622654920461830FEF703FC00284A
:1054E00004D00120624908700020EBE7FF239133CC
:1054F000714A6849491CA02006F06CF900251DE09E
:10550000E8006D4A8118082220460C30FEF7EAFBBD
:10551000002811D156490870042221460831554807
:105520001B30FEF7BFF904225249233108460838E0
:10553000FEF7FEFD0120C5E7681CC5B2322DDFDB9A
:105540000422214608314D48FEF7ACF908222146D5
:105550000C314A48001DFEF7A5F9042221461431FA
:1055600046480C30FEF79EF944490120FFF724FB22
:105570000646002E04D004203D4908700020A1E713
:1055800043480078322802DB002041490870404936
:105590000978C900484A881808224649FEF782F966
:1055A0003B480078C000444BC21839480078C0001E
:1055B000384B5B1CC1180823A02006F047F934487B
:1055C0000078401C3249087008460078322801DB18
:1055D0000020087001232E4A2E49A02006F036F93B
:1055E00001206FE770B50446062120461830FEF70B
:1055F00011FF002804D108201D490870002070BD4B
:10560000082221460C312B48FEF74CF90622174997
:1056100020461830FEF766FB002804D0012014490C
:1056200008700020EBE7FF239133234A1949491CF6
:10563000A02006F0CFF800254CE0E8001E4A8118B3
:10564000082220460C30FEF74DFB002840D10849C7
:10565000087004222146083106481B302EE0000065
:105660008B0200207A240000290000200C0000207A
:1056700093000020810700206A0700207F0400209B
:105680007C000020800000204A07002053070020F3
:10569000770000202615000047050020800E00201E
:1056A00059010020540200201F0000203C0200206D
:1056B0007E6A00006F000020D7070020FEF7F2F896
:1056C0000422FE4908460838FEF732FD012096E71D
:1056D000681CC5B2322DB0DB042221460831F848DF
:1056E000FEF7E0F8042221460C31F548001DFEF7D4
:1056F000D9F8042221461031F1480830FEF7D2F8DB
:10570000EF490120FFF7B8FB0646002E04D0042025
:10571000EC490870002072E7EB490978C900EB4AB0
:1057200088180822EA49FEF7BDF8E7480078C0006B
:10573000E64BC218E4480078C000E64BC1180823C5
:10574000A02006F083F8E0480078401CDE4908708D
:1057500008460078322801DB002008700123DA4A6D
:10576000DC49491EA02006F071F8012047E770B51A
:10577000054600248F212846FEF74CFE002801D163
:10578000012070BD002605E0A85D992800D003E047
:10579000701CC6B2052EF7DB00BF002405E0285DB3
:1057A000002800D003E0601CC4B2052CF7DB00BF6A
:1057B000052C09D0052E07D0052128460BF0E0F96D
:1057C000002801D00120DCE705222946C248FEF767
:1057D00069F80521C048FEF727FABF49487106233A
:1057E0000A46BE49A02007F09FF8002606E0701D7B
:1057F000285C992800D003E0701CC6B2052EF6DBA9
:1058000000BF002406E0601D285C002800D003E0F3
:10581000601CC4B2052CF6DB00BF052C09D0052E98
:1058200007D00521681D0BF0ABF9002801D001203D
:10583000A7E70522691DA848FEF734F80521A64808
:10584000FEF7F2F9A449487106230A46A349891DC7
:10585000A02007F069F8002607E030460A30285CEF
:10586000992800D003E0701CC6B2052EF5DB00BFFE
:10587000002407E020460A30285C002800D003E01E
:10588000601CC4B2052CF5DB00BF052C0AD0052E28
:1058900008D0052128460A300BF072F9002801D003
:1058A00001206EE7052229460A318B48FDF7FAFFF1
:1058B00005218948FEF7B8F98749487106230A4649
:1058C0001B210902A02007F02FF8002607E0304630
:1058D0000F30285C992800D003E0701CC6B2052E5A
:1058E000F5DB00BF002407E020460F30285C0028CD
:1058F00000D003E0601CC4B2052CF5DB00BF052C12
:105900000AD0052E08D0052128460F300BF038F9B3
:10591000002801D0012034E7052229460F316E48C6
:10592000FDF7C0FF05216C48FEF77EF96A49487112
:1059300006230A466949891FA02006F0F5FF287D45
:105940006549087008460078487002230A46634992
:105950000C31A02006F0E8FF687D5F49087008461A
:105960000078487002230A465C490E31A02006F0F8
:10597000DBFFA87D5849087008460078487002236C
:105980000A4656491031A02006F0CEFFE87D524964
:10599000087008460078487002230A464F491231C1
:1059A000A02006F0C1FF287E4B4908700846007809
:1059B000487002230A4649491731A02006F0B4FF77
:1059C0001622294619314648FDF76CFF0422294664
:1059D000333143481630FDF765FF1A2240493848F5
:1059E000FDF760FF1A213648FEF71EF93449887624
:1059F0001B230A4639499539A02006F095FF1A2342
:105A0000374A36499539A02006F0C0FF10222946B2
:105A100037313148FDF746FF10212F48FEF704F9D2
:105A20002D4908741022294647312B481130FDF7C3
:105A300039FF102128481130FEF7F6F826492031A9
:105A400048702223244A2749A02006F06DFF0C222B
:105A5000294657312048FDF725FF00240BE0A2001E
:105A600008321D4BD118A2000C32D0180422FDF7C9
:105A700019FF601CC4B2032CF1DB18211648FEF795
:105A8000D3F8154908761022294663311248193097
:105A9000FDF708FF00240BE0A20025320E4BD118C1
:105AA000A2002932D0180422FDF7FCFE601CC4B20B
:105AB000032CF1DB1C210848193015E0A407002055
:105AC0007F0400209300002077000020D7070020EB
:105AD0006F000020271500000F0600200C1B00009F
:105AE000D706002016250000FEF79EF8FA494875F3
:105AF00036230A46203AF949A02006F015FF0C2269
:105B000029467331F4482038FDF7CCFE00240CE020
:105B1000A2000832F04B203BD118A2000C32D01862
:105B20000422FDF7BFFE601CC4B2032CF0DB182179
:105B3000E9482038FEF778F8E7492039087610223E
:105B400029467F31E448C01FFDF7ACFE00240CE07D
:105B5000A2002532E04B203BD118A2002932D018F8
:105B60000422FDF79FFE601CC4B2032CF0DB1C2155
:105B7000D948C01FFEF758F8D749487536230A465A
:105B8000203AD6493631A02006F0CEFED44800791E
:105B9000102188431030D24908710846007804214A
:105BA0008843001DCE4908700020EAE570B505461F
:105BB0000024B4212846FEF72DFC002801D1012045
:105BC00070BD06222946C748FDF76CFE022413E08B
:105BD000C448C07861006118C24A50541046017927
:105BE00060002018401C11541046417960002018B4
:105BF000801C1154601CC4B20E2CE9DB2A21B94868
:105C0000FEF712F8B749203188722B23B54AB649FE
:105C1000A02006F089FE0622A91DB248FDF742FE2B
:105C2000022413E0AF48C07861006118AD4A5054B7
:105C30001046017960002018401C1154104641792B
:105C400060002018801C1154601CC4B20E2CE9DBCB
:105C50002A21A448FDF7E8FFA249203188722B23AE
:105C6000A04AA249A02006F05FFE2A2229460C3154
:105C70009C48FDF717FE2A219A48FDF7D5FF994960
:105C8000203188722B23974A97492B31A02006F0A8
:105C90004BFE2A22294636319248FDF703FE2A217F
:105CA0009048FDF7C1FF8F49203188722B238D4A20
:105CB0008D495631A02006F037FE2A222946603150
:105CC0008848FDF7EFFD2A218648FDF7ADFF85499D
:105CD000203188722B23834A84492B31A02006F07F
:105CE00023FE2A2229468A317E48FDF7DBFD2A2140
:105CF0007C48FDF799FF7B49203188722B23794A34
:105D00007A495631A02006F00FFE7548007910211F
:105D1000884310307249087108460078042188438E
:105D2000001D6F49087000204AE770B50546002441
:105D300085212846FEF794FB002801D0012070BD84
:105D4000002605E0A85D992800D003E0701CC6B2CB
:105D5000052EF7DB00BF002405E0285D002800D0F9
:105D600003E0601CC4B2052CF7DB00BF052C09D092
:105D7000052E07D0052128460AF002FF002801D091
:105D80000120DCE7052229465648FDF78BFD052159
:105D90005448FDF749FF5349487106230A465249C2
:105DA0004E39A02006F0C0FD002606E0701D285CDC
:105DB000992800D003E0701CC6B2052EF6DB00BFA8
:105DC000002406E0601D285C002800D003E0601C71
:105DD000C4B2052CF6DB00BF052C09D0052E07D078
:105DE0000521681D0AF0CCFE002801D00120A6E79D
:105DF0000522691D3B48FDF755FD05213948FDF792
:105E000013FF3849487106230A4637494839A0200C
:105E100006F08AFD002607E030460A30285C992803
:105E200000D003E0701CC6B2052EF5DB00BF0024D5
:105E300007E020460A30285C002800D003E0601C00
:105E4000C4B2052CF5DB00BF052C0AD0052E08D006
:105E5000052128460A300AF093FE002801D00120CF
:105E60006DE7052229460A311E48FDF71BFD052175
:105E70001C48FDF7D9FE1B49487106230A461B2121
:105E80000902A02006F050FD002607E030460F3042
:105E9000285C992800D003E0701CC6B2052EF5DB03
:105EA00000BF002407E020460F30285C002800D007
:105EB00003E0601CC4B2052CF5DB00BF052C17D035
:105EC000052E15D0052128460F300AF059FE00286E
:105ED0000ED0012033E700002F06002038250000F7
:105EE000290000208B0200205A1B0000DD1C00004E
:105EF000052229460F31FE48FDF7D4FC0521FC4858
:105F0000FDF792FEFA49487106230A46F949A02096
:105F100006F00AFD287DF6490870084600784870AA
:105F200002230A46F3491231A02006F0FDFC687DE9
:105F3000EF49087008460078487002230A46ED4988
:105F40001431A02006F0F0FCA87DE949087008464D
:105F50000078487002230A46E6491631A02006F070
:105F6000E3FCE87DE24908700846007848700223A7
:105F70000A46E0491831A02006F0D6FC287EDC490C
:105F8000087008460078487002230A46D9491D3136
:105F9000A02006F0C9FC062229461931D448FDF795
:105FA00081FC022413E0D248C07861006118D04A15
:105FB00050541046017960002018401C11541046BE
:105FC000417960002018801C1154601CC4B20E2C52
:105FD000E9DB2A21C648FDF727FEC5492031887232
:105FE0002B23C34AC3495431A02006F09DFC06224E
:105FF00029461F31BE48FDF755FC022413E0BC487A
:10600000C07861006118BA4A5054104601796000A6
:106010002018401C11541046417960002018801C43
:106020001154601CC4B20E2CE9DB2A21B048FDF7E4
:10603000FBFDAF49203188722B23AD4AAE49A02029
:1060400006F072FC182229462531A948FDF72AFCE2
:10605000082413E0A648407D61006118A44A50540A
:106060001046817D60002018401C11541046C17DEF
:1060700060002018801C1154601CC4B20E2CE9DB97
:106080002A219B48FDF7D0FD9949203188722B23A6
:10609000974A98497F31A02006F046FC18222946ED
:1060A0003D319348FDF7FEFB082413E09048407D06
:1060B000610061188E4A50541046817D600020189E
:1060C000401C11541046C17D60002018801C1154E2
:1060D000601CC4B20E2CE9DB2A218548FDF7A4FD23
:1060E0008349203188722B23814A8249AA31A0201A
:1060F00006F01AFC1822294655317D48FDF7D2FBDF
:10610000082413E07A48407D61006118784A5054B1
:106110001046817D60002018401C11541046C17D3E
:1061200060002018801C1154601CC4B20E2CE9DBE6
:106130002A216F48FDF778FD6D49203188722B23A5
:106140006B4A6D492B31A02006F0EEFB1822294640
:106150006D316748FDF7A6FB082413E06448407DD5
:1061600061006118624A50541046817D6000201819
:10617000401C11541046C17D60002018801C115431
:10618000601CC4B20E2CE9DB2A215948FDF74CFDF6
:106190005749203188722B23554A57495631A02040
:1061A00006F0C2FB5548007804218843001D53497E
:1061B00008700020C3E570B505460C46042250491E
:1061C0002046FDF76FFB002D05D108220021201D80
:1061D000FDF75EFB04E008224A49201DFDF762FB43
:1061E0000422494920460C30FDF75CFB0422474954
:1061F00020461030FDF756FB042245492046143056
:10620000FDF750FB042241490C3920461830FDF7B8
:1062100049FB0422002120461C30FDF739FB0021F8
:106220002020015504223949491F20462130FDF71D
:1062300039FB70BDF3B58FB00D4600200E900026DF
:1062400010E0242002F0EDFF0446E00FC00701D06B
:10625000E043441C0E9800190E9064200AF038FAAE
:10626000701CC6B2AE42ECDB29460E980FF0D3FA92
:106270000E902849CA798B79110219431922D2014B
:10628000514308460FF0B2FD234A244B0B910A906C
:106290000FF0C4FC0D910C900FF04CFE20490860EB
:1062A0000F980FF0B7FD0B910A900F980FF0B2FD09
:1062B000079106900E980FF091FD00901848016824
:1062C00000980FF0B8FB01900FF020FE0022154B54
:1062D000039102900FF0A2FC05910490079B069A8F
:1062E0000FF08DFC099108900B9B0A9A1CE00000AE
:1062F0008B020020061B0000DD1C0000290000208E
:10630000340100206F000020800E00206107002073
:10631000A40700208E0D0020CC47C9E065DCB73F04
:106320004C01002000408F400FF0E0FC0D910C90DC
:106330000FF000FE0746384611B0F0BDF0B597B03B
:10634000064600240020169015901490332003F088
:1063500052FCFE49CA798B79110219431922D201E4
:10636000514308460FF042FDF94AFA4B1191109043
:106370000FF054FC139112900FF0DCFDF649086009
:106380003F210901742002F043FF002516E0C820D8
:106390000AF09EF9C8200AF09BF964200AF098F9E7
:1063A000142002F03EFF1699401816901C2002F0AF
:1063B00038FF159940181590681CC5B2052DE6DB0D
:1063C000294616980FF027FA1690294615980FF0CF
:1063D00022FA15900AF089F930460930FDF736FBAC
:1063E000149014980FF016FD0B910A9016980FF068
:1063F00011FD0791069015980FF0F0FC0090D6481B
:10640000016800980FF017FB01900FF07FFD00224C
:10641000D24B039102900FF001FC05910490079B71
:10642000069A0FF0FBFB099108900B9B0A9A0FF05C
:106430005DFC002201239B070D910C900FF056FC90
:106440000022C74B0F910E900FF050FC0022C54B5D
:10645000119110900FF0D3FB139112900FF06AFD81
:10646000074639467F20C0050FF04FFA13900120F0
:10647000C0077840129013990FF0DDFA074600210B
:1064800038460FF073FD09D83946472000060FF053
:1064900095FA13900FF0E2FC04460DE039464720D0
:1064A00000060FF08BFA8F21C90512900FF02DFA1C
:1064B00013900FF0D3FC0446A4B2A4482038847192
:1064C000210AC1710472210A41728472210AC172C7
:1064D000A5488470210AC17021460C2002F098FE64
:1064E00064200AF0F5F82146102002F091FE6420A5
:1064F0000AF0EEF82146142002F08AFE002506E09C
:106500000AF0F3F864200AF0E3F8681CC5B2282DFD
:10651000F6DB05211498FFF78DFE07460120C00722
:1065200078400D900FF0F2FC904A914B0F910E9035
:106530000FF0DCFB00228A4B119110900FF06EFBE4
:10654000139112900FF0F6FC0746002138460FF029
:106550000DFD04D838460FF081FC044608E03946AA
:106560008F20C0050FF0D1F913900FF077FC04468F
:10657000A4B2764820380473210A41737A48047122
:10658000210A41712146182002F042FE16980FF0B0
:1065900041FC1191109015980FF03CFC0022704BBB
:1065A0000D910C900FF0A2FB0F910E90119B109A81
:1065B0000FF034FB139112900FF08AFC1490149892
:1065C000C00FC00703D01498C043401C1490149807
:1065D000000A149014980FF01DFC664A664B119146
:1065E00010900FF01BFB139112900FF071FC0446FA
:1065F000A4B256480470210A41705B480473210A12
:1066000041732146402002F003FEB01CFDF7EAF979
:10661000159015A8FEF7F0F9701DFDF717FA169002
:106620001222142116A8FEF712FA30460930FDF79F
:106630000DFA1490642114980FF0EDF814901322C1
:10664000242114A8FEF703FA4C480078202188433F
:1066500020304A4908702C214348FDF77CFE81B266
:10666000414820300173090A41732E233E4A4449B0
:10667000A02006F072F9AA2003F0BDFA552003F01D
:10668000BAFA002017B0F0BDF0B58BB006460C4644
:10669000F07A04218843F072707B8006C00F18D115
:1066A000A078802815D1E078802812D12079802820
:1066B0000FD1607980280CD12078912809D1707B86
:1066C0000007400F052804D100202E49086002F081
:1066D00008FD707B8006C00F01D002F03DFAA07863
:1066E00029490870E0784870207988706079C8700E
:1066F000002509E0079800020321491BA21C515CF8
:1067000001430791681CC5B2042DF3DB307BC00741
:10671000C00F59D02078AA280FD11C480078C00794
:10672000C00F0AD005F027F92820B0740620707435
:10673000002006F092FB02F0D8FC2078C006C00EC4
:10674000082841D02078C006C00E21E08E0D002020
:10675000CC47C9E065DCB73F4C01002000408F40CA
:106760000000E0400000F03FFE0D002083C0CAA101
:1067700045B6FB3FFCA9F1D24D62503F27000020F7
:1067800083700000CC00002034010020290000208C
:10679000112819D02078C006C00E202814D02078E7
:1067A000C006C00E21280FD02078C006C00E1328C6
:1067B0000AD02078C006C00E1C2805D02078C0065C
:1067C000C00E032800D082E7307B4007C00F39D0CD
:1067D00020781F280DD1F7480FF084F8F649884239
:1067E00007D1F648007840084000401CF349087083
:1067F0006DE72078C006C00E112823D02078C0068F
:10680000C00E14281ED02078C006C00E202819D033
:106810002078C006C00E212814D02078C006C00EF3
:1068200013280FD02078C006C00E07280AD0207881
:10683000C006C00E152805D02078C006C00E03285B
:1068400000D044E720788006C00F09D02078AA281D
:1068500006D0B07A02218843801CB07202F02AFC74
:106860002078C006C00E112802D1607804280ED00E
:106870002078C006C00E142809D02078C006C00EAB
:10688000072804D02078C006C00E032876D1C94856
:106890000FF028F8CA4988420CD0C6480FF022F8F9
:1068A000C749491C884205D0C2480FF01BF8C549AA
:1068B00088420ED1BF480FF015F808A900900BF0E0
:1068C00055F900286AD1B07A02218843801CB07241
:1068D000C4E76079002802D0607901280ED1B5485C
:1068E0000FF000F808A900900BF005FE002855D124
:1068F000B07A02218843801CB072AFE76079052826
:106900000ED1AC480EF0EEFF08A900900BF08DFA06
:10691000002843D1B07A02218843801CB0729DE7E1
:10692000A448C078032803D1A2484078FF2815D096
:10693000A048C078032803D19E48807830280DD025
:106940009C48C078032803D19A488078112805D044
:1069500060790F2813DD6079202810DA95480EF051
:10696000C1FF002208A900900BF061FB002815D19F
:10697000B07A02218843801CB0726FE70EE08D4828
:106980000EF0B0FF08A900900BF0F0F8002805D138
:10699000B07A02218843801CB0725FE72078C0067D
:1069A000C00E15282DD014DC112870D00BDC032864
:1069B00044D0072801D102F0BBF8082801D002F02A
:1069C000B8F802F06BF8132812D01428F7D101F0B0
:1069D00009F816380728F2D243007B449B885B00F5
:1069E0009F44480FF90F920FA7109B10A7109A0E03
:1069F00006227549A01CFCF755FF0620607002F0C6
:106A00009BF8002509E00520411BA01C405C0521E6
:106A1000491B6D4A5054681CC5B2062DF3DB062194
:106A20006948FDF701F96849887107230A466749F3
:106A3000A02005F079FF00206070E0E7A0785D49B4
:106A40000870E0784870207988706079C8700025F7
:106A500009E0079800020321491BA21C515C014375
:106A60000791681CC5B2042DF3DB52480EF03AFFC3
:106A7000574A811A904266D00ADC564940182ED0F7
:106A8000FF3801380DD0FF3801386FD148E0A5E05C
:106A900003200002081A33D00F210902401A65D1E1
:106AA00065E0A01CFEF7B0FA03900398012806D118
:106AB00025206070A11C0020FFF77DFB0EE02078F0
:106AC000402188434030207025206070A11C0020A8
:106AD000FFF771FB404801782220015567E0A01CB8
:106AE000FEF7E3FC03900398012806D1252060708F
:106AF000A11C0120FFF75FFB01E002F090FA56E0D5
:106B0000A01CFEF76FFD03900398012806D12520F5
:106B10006070A11C0120FFF74EFB00E0EDE746E0AE
:106B200060789B2808D06078972805D0B07A400814
:106B30004000401CB07291E620460A30FEF717FE76
:106B40000020607033E06078C02808D06078BC28EE
:106B500005D0B07A40084000401CB0727EE6204666
:106B60000A30FFF723F80020607020E019E0607819
:106B70008D2805D0B07A40084000401CB0726DE608
:106B800020460A30FFF7D1F803900398002805D07B
:106B9000B07A40084000401CB0725FE60020607090
:106BA00005E0B07A02218843801CB07256E600BF2F
:106BB00025E7000034010020131454802900002030
:106BC00000029000000190000C000020321B000029
:106BD000FF05010701FDFEF89300002060780728FB
:106BE00005D06078092802D0607811282AD1FE48A3
:106BF0000078C007C00F05D1B07A04218843001D7A
:106C0000B0722BE604F0B7FE607811280ED1032293
:106C1000211DE01CFCF746FE0021A1710322214644
:106C20000831E01DFCF73EFE0021A172A01CFFF719
:106C300085FB002805D0B07A02218843801CB07201
:106C40000CE644E56078042808D060780B2805D06D
:106C5000B07A02218843801CB072FFE508A8C07892
:106C6000202870D019DC07286ED007DC03000FF055
:106C7000B1FA07B1F5F4B3F3F2B2F500172877D003
:106C800006DC0D2875D00E2801D000F09DFE6DE2C7
:106C90001E286FD01F28F8D185E247281ED010DCAF
:106CA00025380928F1D243007B449B885B009F4430
:106CB0004D06D500D500D5005102BD016D01D500AE
:106CC000F8015C2879D004DC5A2877D05B28DCD125
:106CD000B3E05D2873D06E28D7D17EE0C3480EF0B4
:106CE00001FEC349884205D1C2480178A1714178AB
:106CF000E1716EE0BD480EF0F5FDBF49884224D138
:106D0000002505E00020291DA21C5054681CC5B2B6
:106D1000402DF7DB002506E0B848405D291DA21C88
:106D20005054681CC5B2202DF6DB002508E0B3489E
:106D30002030405D29462431A21C5054681CC5B245
:106D4000202DF4DB45E0F7E20EE2A8480EF0CAFD84
:106D5000AB49884225D1002505E00020291DA21C51
:106D60005054681CC5B2062DF7DBA64F002509E07C
:106D7000EEE1FAE104E23878291DA21C50547F1C90
:106D8000681CC5B2022DF6DB002507E09D48001FF8
:106D9000405DA91DA21C5054681CC5B2042DF5DB32
:106DA00017E092480EF09EFD9749884208D1974817
:106DB0000178A1714178E1710BE064E01CE091E0A1
:106DC0008A480EF08FFD9249884202D1914801789D
:106DD000A171B0E200BF00BF00BF0A9F002506E01E
:106DE0003878291DA21C50547F1C681CC5B208A805
:106DF0000078A842F4DCECE7002506E08648405D18
:106E0000291DA21C5054681CC5B2022DF6DB0025BA
:106E100005E0FF20A91DA21C5054681CC5B2022D1C
:106E2000F7DB002506E0FF2029460831A21C50545C
:106E3000681CC5B2022DF6DBCBE7002507E07648DB
:106E40000C38405D291DA21C5054681CC5B2032D8E
:106E5000F5DB002509E023E17BE172E0F6E3FF20AA
:106E6000E91DA21C5054681CC5B2032DF7DB002598
:106E700006E0FF2029460A31A21C5054681CC5B206
:106E8000032DF6DBA5E70A9F002506E03878291DCB
:106E9000A21C50547F1C681CC5B2032DF6DB0A9F50
:106EA000002506E03878E91DA21C50547F1C681CA0
:106EB000C5B2032DF6DB002506E0FF2029460A3186
:106EC000A21C5054681CC5B2032DF6DB002506E059
:106ED000FF2029460D31A21C5054681CC5B2032D59
:106EE000F6DB76E7002507E04B48001D405D291DD5
:106EF000A21C5054681CC5B2022DF5DB002507E02A
:106F00004548001D405DA91DA21C5054681CC5B217
:106F1000022DF5DB002506E0FF2029460831A21CE2
:106F20005054681CC5B2022DF6DB002506E0FF2098
:106F300029460A31A21C5054681CC5B2022DF6DB4A
:106F400047E7042504E00021A01C4155681CC5B298
:106F5000242DF8DB31490798884206D10021A17120
:106F60003221E171002121720FE02D4907988842FA
:106F70000BD1002507E02B48405D2321491BA21CB3
:106F80005054681CC5B2202DF5D322E70A9FE07843
:106F9000FF280ED0042108A80170002506E03878EB
:106FA000291DA21C50547F1C681CC5B2042DF6DBA1
:106FB0003BE0142008A908700020069011E000258D
:106FC00009E0397806988200121D5219A01C8154DC
:106FD0007F1C681CC5B2042DF3DB0698401CC1B2AF
:106FE0000691069805281FE02900002034010020A2
:106FF000FF020208B4000020FF0303087E090020FE
:10700000FF04040878090020FF050508B0000020EF
:10701000FF0606081A0000204C0E00200904000498
:107020000100800458620100C9DBD2E608A8037899
:107030000A9881B2FC4AA020009104F0CBFBE078D2
:10704000FF280ED0042108A80170002506E0F648AC
:10705000405D291DA21C5054681CC5B2042DF6DBEE
:107060001DE0142008A908700020069014E00025F7
:107070000CE0069881004819EB49095C06988200EB
:10708000121D5019A21C1154681CC5B2042DF0DB4E
:107090000698401CC1B2069106980528E7DB98E6E1
:1070A00000BF08A800790A2821D10123DF4AE0495E
:1070B000A02005F06BFCDD490878FCF772FCDB4989
:1070C0000870084600780E2801DD0E200870D748A9
:1070D000007841004018C1B208A8017003780A98EE
:1070E00081B2A21DA020009104F074FB2FE008A83B
:1070F00000790B2822D10123CC4ACD49091DA020BB
:1071000005F044FCC9490878FCF74BFCC7490870F6
:10711000084600780E2801DD0E200870C34800786C
:1071200041004018C1B208A8017003780A9881B2E2
:10713000A21DA020009104F04DFB08E008A80378F0
:107140000A9881B2A21DA020009105F01FFC40E624
:1071500000BF00BF08A803780A9881B2A21DA02032
:10716000009104F037FB34E600BF00BF08A80378A5
:107170000A9881B2A21DA020009104F02BFB28E602
:10718000AC49079888420DD00A9F002506E0387860
:10719000291DA21C50547F1C681CC5B208A8007889
:1071A000A842F4DC15E6A449079888427DD105235E
:1071B000A21D9F490C39A02004F00CFB0523224698
:1071C0000B329B49891FA02004F004FB05232246B3
:1071D00010321B210902A02004F0FCFA05232246EC
:1071E000153293491239A02004F0F4FA0123224603
:1071F0001A328F49A02004F0EDFA012322461B32F7
:107200008B49891CA02004F0E5FA012322461C3298
:107210008749091DA02004F0DDFA012322461D3212
:107220008349891DA02004F0D5FA012322461E328D
:107230007F490B31A02004F0CDFA804F002507E0F4
:10724000387829461D31A21C50547F1C681CC5B2D9
:10725000162DF5DB0422002120463530FCF718FB03
:1072600004227649163120463930FCF71BFB1023E7
:1072700022463D327249A02004F0ACFA1023224687
:107280004D326F491131A02004F0A4FA0C2322469C
:107290005D326B492231A02004F09CFA1023224673
:1072A000693267493B31A02000E012E004F092FA15
:1072B0000C232246793262495831A02004F08AFA20
:1072C0001023224685325E497131A02004F082FAF3
:1072D00031E05C49079888422DD10623A21D54490C
:1072E0004231A02004F076FA062322460C32564999
:1072F000A02004F06FFA2A23224612324C496D3145
:10730000A02004F067FA2A2322463C3248499831EB
:10731000A02004F05FFA2A23224666324A492B3124
:10732000A02004F057FA2A232246903246495631CB
:10733000A02004F04FFA4EE34449079888421ED13A
:1073400004224349A01DFCF7ADFA0422414920461E
:107350000A30FCF7A7FA04223E490C3120460E30D1
:10736000FCF7A0FA02223C4920461230FCF79AFAB8
:1073700002223A4920461430FCF794FAE5E23849F3
:107380000798884274D1A07936490870E07948702E
:10739000207A8870607AC870A07A0871E07A4871A3
:1073A000207B88713048C07802218843801C2E4998
:1073B000C87004222649A01DFCF774FA042225494E
:1073C00020460A30FCF76EFA042222490C3120468E
:1073D0000E30FCF767FA0222244920461230FCF7EF
:1073E00061FA032221490C3920461430FCF75AFA7D
:1073F00003221E49203920461730FCF753FA022297
:107400001A49091D20461A30FCF74CFA022212498B
:1074100020461C30FCF746FA0222104920461E3056
:10742000FCF740FA91E223E0420C00208B0200209E
:10743000181B000001AAAAF5FF040107D7060020C7
:1074400016250000FF050107DD1C0000FF0101F506
:10745000800E002055070020D5000020D700002016
:10746000FF0202F5D3010020290000204C0E00206D
:10747000FC490798884276D1FB4F002506E0387812
:10748000291DA21C50547F1C681CC5B2042DF6DBBC
:10749000F54F3F1D002507E0387829460831A21C2A
:1074A00050547F1C681CC5B2042DF5DBEE4F083725
:1074B000002507E0387829460C31A21C50547F1C67
:1074C000681CC5B2042DF5DBE74F0C37002507E03B
:1074D000387829461031A21C50547F1C681CC5B254
:1074E000042DF5DBE04F1037002507E038782946FA
:1074F0001431A21C50547F1C681CC5B2042DF5DB4E
:10750000DA4F002507E0387829461831A21C50547C
:107510007F1C681CC5B2042DF5DBD44FFF1D002570
:1075200007E0387829461C31A21C50547F1C681C87
:10753000C5B2042DF5DBCD4F0C37002507E03878B8
:1075400029462031A21C50547F1C681CC5B2042D52
:10755000F5DBC748017826200155C548417827202A
:107560000155F2E1FFE7C349079888426FD1042231
:10757000BE49A01DFCF796F90422BC49C91D20464E
:107580000A30FCF78FF9002507E0BB48405D29462B
:107590000C31A21C5054681CC5B2022DF5DB00252D
:1075A00006E0002029460E31A21C5054681CC5B2CA
:1075B000042DF6DB002508E0AF480C38405D294675
:1075C0001231A21C5054681CC5B2032DF4DB0025F7
:1075D00006E0002029461531A21C5054681CC5B293
:1075E000062DF6DB002508E0A3481C38405D29463F
:1075F0001B31A21C5054681CC5B2032DF4DB0025BE
:1076000008E09D481C38405D29461E31A21C50549C
:10761000681CC5B2032DF4DB002506E000202946D6
:107620002131A21C5054681CC5B2062DF6DB002582
:1076300008E09148001D405D29462731A21C5054A6
:10764000681CC5B2022DF4DB00250AE0BCE16EE047
:107650008948001D405D29462931A21C5054681CF0
:10766000C5B2022DF4DB002506E0002029462B31AF
:10767000A21C5054681CC5B2042DF6DB7A4F0025BD
:1076800007E0387829462F31A21C50547F1C681C13
:10769000C5B2042DF5DB744F3F1D002507E0387897
:1076A00029463331A21C50547F1C681CC5B2042DDE
:1076B000F5DB6D4F0837002507E03878294637316C
:1076C000A21C50547F1C681CC5B2042DF5DB664F0C
:1076D0000C37002507E0387829463B31A21C50546E
:1076E0007F1C681CC5B2042DF5DB5F4F10370025E9
:1076F00007E0387829463F31A21C50547F1C681C93
:10770000C5B2042DF5DB002506E0002029464331F3
:10771000A21C5054681CC5B23C2DF6DB54480178BD
:107720008120015552484178822001550DE153498D
:10773000079888427BD104224C49A01DFCF7B2F87F
:1077400004224A49C91D20460A30FCF7ABF800253F
:1077500007E04948405D29460C31A21C5054681C82
:10776000C5B2022DF5DB002506E0002029460E31CA
:10777000A21C5054681CC5B2042DF6DB002508E09D
:107780003D480C38405D29461231A21C5054681CFB
:10779000C5B2032DF4DB002506E000202946153193
:1077A000A21C5054681CC5B2062DF6DB002508E06B
:1077B00031481C38405D29461B31A21C5054681CBE
:1077C000C5B2032DF4DB002508E02B481C38405DD2
:1077D00029461E31A21C5054681CC5B2032DF4DB8F
:1077E000002506E0002029462131A21C5054681CC7
:1077F000C5B2062DF6DB002508E01F48001D405DE0
:1078000029462731A21C5054681CC5B2022DF4DB56
:10781000002508E01848001D405D29462931A21CBA
:107820005054681CC5B2022DF4DB002507E08CE043
:10783000002029462B31A21C5054681CC5B2042DCF
:10784000F6DB094F002507E0387829462F31A21CC6
:1078500050547F1C681CC5B2042DF5DB024F3F1D40
:10786000002515E0FF808002800E002055070020D3
:1078700069000020FF1180024C0E0020FF228002D0
:10788000387829463331A21C50547F1C681CC5B27D
:10789000042DF5DBF84F002507E03878294637310D
:1078A000A21C50547F1C681CC5B2042DF5DBF24F9E
:1078B0003F1D002507E0387829463B31A21C505473
:1078C0007F1C681CC5B2042DF5DBEB4F0837002583
:1078D00007E0387829463F31A21C50547F1C681CB1
:1078E000C5B2042DF5DBE548017845200155E34894
:1078F0004178462001550422E14920464730FBF7F4
:10790000D1FF0422DE49091D20464B30FBF7CAFF98
:107910000423DC4ADC49A02005F038F80422D949C8
:10792000DA48FBF7BFFF0422D5490C39D748FCF7EA
:10793000E9FC0422D249491FD448FCF7B3FC0422D5
:10794000D24920464F30FBF7ADFF44E0D0480DF060
:10795000C9FFD04988422DD1002508E00320401BF3
:10796000CD49085C291DA21C5054681CC5B2042DC9
:10797000F4DBC948001D0DF0B5FFA072C648001D1C
:107980000DF0B0FF0004010EE172C34808300DF0A5
:10799000A9FF3C2100900DF03EFF2073BE48083047
:1079A0000DF0A0FF3C2100900DF035FF0004010E0A
:1079B000617310E0B6480DF095FFB849884202D1D6
:1079C000B7480178A17106E0B07A02218843801C93
:1079D000B07201F06FFB00BF08A80078001D607056
:1079E00001F0AAF860780C2805DAB07A4008400067
:1079F000401CB072EDE72178C806C00EA11DFDF74E
:107A00005EF8014668460174007C002805DDB07A06
:107A100004218843001DB072DBE708A8C0782D2838
:107A20007ED008A8C07803287AD008A8007900285A
:107A30000DD108A8017820460E30FCF711FD002872
:107A40006ED0B07A40084000401CB072C1E708A870
:107A5000007902287BD1042120460E3009F090F8ED
:107A6000002805D0B07A40084000401CB072B0E752
:107A7000607CFBF796FF8B4908700878C117890F67
:107A8000091889108900411A18D1207C02282ED1AA
:107A9000E07B0007000F092805DCE07B292802DCD9
:107AA000E07B002801D1012000E0002000281ED04A
:107AB000B07A40084000401CB0728AE7207C02285F
:107AC00015D1E07B0007000F092805DCE07B2828A2
:107AD00002DCE07B002801D1012000E0002000282A
:107AE00005D0B07A40084000401CB07271E7207C9D
:107AF000042808D0207C062805D0207C092802D044
:107B0000207C112816D1E07B0007000F092805DC36
:107B1000E07B302802DCE07B002802D1012001E07C
:107B20007CE00020002879D0B07A40084000401C5A
:107B3000B0724EE7E07B0007000F092805DCE07B10
:107B4000312802DCE07B002802D1012001E008E0BE
:107B5000002000286CD0B07A40084000401CB07271
:107B600037E708A8007903282CD1A07B0007000F75
:107B7000092802DCA07B592801DD012000E000205B
:107B8000002819D1E07B0007000F092802DCE07B08
:107B9000592801DD012000E0002000280CD1207CC4
:107BA0000007000F092802DC207C232801DD0120CA
:107BB00000E0002000283BD0B07A40084000401C84
:107BC000B07206E708A800790D280CD105212046DF
:107BD0000E3008F0D5FF00282AD0B07A40084000C7
:107BE000401CB072F5E608A800790F2820D1A07BD0
:107BF0000007000F092802DCA07B592801DD0120C5
:107C000000E0002000280DD1E07B0007000F0928CC
:107C100002DCE07B592802DD012001E008E00020C1
:107C2000002805D0B07A40084000401CB072D0E671
:107C300008A88079002811D108A8017820460E30C4
:107C4000FBF7F2FF014608A802780C32A01C815411
:107C500008A80078401CC1B208A8017008A8C07824
:107C6000252878D020DC032876D0042875D0052874
:107C700074D0062873D184E1880E002069000020AA
:107C800061070020800000204C24000085000020B7
:107C9000340100200301FF04670900200105FF04EF
:107CA000240200203E01002026287DD02D287CD0F3
:107CB000472802D06E28DDD1FAE3F7480DF012FE16
:107CC000F649884217D1A07BF5490870E07B4870DF
:107CD0000846407809784018F149887003230A461D
:107CE000F049A02004F020FE0223ED4AED49A02037
:107CF00004F04CFEA8E0E8480DF0F4FDEA498842A3
:107D00002ED140220021E948FBF7C2FD2022214666
:107D10000E31E648FBF7C6FD202221462E31E3480E
:107D20002030FBF7BFFD4021E148FBF77DFFDF4935
:107D3000403108704123DD4ADA490D31A02004F0BA
:107D4000F3FD4023D94AD7490D31A02004F01EFE8F
:107D500008F01AF978E0F1E37DE0AAE3BBE3EEE393
:107D6000CD480DF0BFFDD34988422BD10922002117
:107D7000CF48FBF78DFD022221460E31CC48001D75
:107D8000FBF790FD042221461031C948FBF78AFD1C
:107D90000821C748FBF748FFC549087209230A466E
:107DA000C049C91CA02001E0FEE32CE104F0BCFDA9
:107DB0000823BF4ABB49C91CA02004F0E7FD08F016
:107DC000E3F841E0B4480DF08DFDBB49884219D17C
:107DD000A07BBA490870E07B487008460078497873
:107DE0004018B649887003230A46AE495331A02093
:107DF00004F09AFD0223B14AAA495331A02004F0AD
:107E0000C5FD21E0A4480DF06DFDAD49884213D1B8
:107E1000A07BAC490870002048708870C8700421AD
:107E2000A848FBF701FFA749087105230A46A649A0
:107E3000A02004F079FD07E097480DF053FDA34919
:107E4000884201D108F0D2F8A148007840084000EB
:107E50009F4908702BE390480DF044FD9D498842EE
:107E60003DD1A07B9C49C870E07B0871207C4871A3
:107E7000607C88710846C078002801D10720C8704E
:107E800008F09CFDAA281AD1B07A40084000401C96
:107E9000B07220784021884340302070012060700B
:107EA000B07AA070307B1021884310303073F07AA4
:107EB000802188438030F07201200BB0F0BD8448EF
:107EC000C078802188438249C87008F00FFD0723DD
:107ED000824A15210902A02003F0B8FC50E06E4848
:107EE0000DF000FD7B49491C884234D1A07B7A49C2
:107EF0000870E07B4870207C887008F037FFAA2863
:107F000019D1B07A40084000401CB072207840215E
:107F100088434030207001206070B07AA070307BC0
:107F20001021884310303073F07A802188438030EC
:107F3000F0720120C1E76648C07880218843644917
:107F4000C87008F0D3FC0723644A15210902A02059
:107F500003F07CFC14E050480DF0C4FC60498842FA
:107F60000ED1062200215F48FBF792FC06235D4AF2
:107F70005D49A02003F06AFC20460E3009F064F948
:107F8000C6E345480DF0AEFC5849401824D0FC2803
:107F900005D0FD2804D05649401832D130E000BF4A
:107FA000002509E01120411BA01C405C0521491B54
:107FB000504A5054681CC5B2062DF3DB06214D48CB
:107FC000FBF732FE4B49887107230A463E49C91F19
:107FD000A02004F0A9FC14E0A07B3A49087000201E
:107FE00048708870C87004213648FBF71DFE35497B
:107FF000087105230A463449A02004F095FC00E0EE
:1080000000BF00BF84E308A8007900280DD108A8AC
:10801000017820460E30FCF723FA00283BD0B07AD6
:1080200040084000401CB072D3E408A8007906283C
:1080300010D1A07B002802D0A07B042801DD012004
:1080400000E00020002826D0B07A40084000401C04
:10805000B072BEE408A80079072810D1A07B0028E0
:1080600002D0A07B082801DD012000E000200028CC
:1080700011D0B07A40084000401CB072A9E408A8B2
:108080000079082841D1A07B002802D0A07B1428C9
:1080900032DD012031E0AAE034010020FF020208B5
:1080A000B4000020A4250000FF0303087E0900207F
:1080B00074090020FF040408FF050508B000002033
:1080C000FF0606081A000020391B0000FF080808F8
:1080D0002900002001010004D30100201F0000201E
:1080E0000003CC04A20B0020DC700000FBFCFFFBB3
:1080F00004F8FFFF0C0000200020002877D0B07AA1
:1081000040084000401CB07263E408A800790928C8
:108110000DD1A07B992801DD012000E0002000287E
:1081200065D0B07A40084000401CB07251E408A805
:1081300000790D280CD1052120460E3008F020FDD5
:10814000002854D0B07A40084000401CB07240E48F
:1081500008A800790C280DD108A8017820460E3017
:10816000FCF77EF9002842D0B07A40084000401C5D
:10817000B0722EE408A80079042828D1E07B00071B
:10818000000F092805DCE07B282802DCE07B0028C2
:1081900001D1012000E0002000280CD1A07B0007C5
:1081A000000F092802DCA07B232801DD012000E06C
:1081B000002000281BD0E07B992818D0A07B9928AC
:1081C00015D0B07A40084000401CB07212E408A8F4
:1081D00000790A2803D008A800790B2807D1A079D4
:1081E000022805D160780C38C0B2029002E022E18A
:1081F0006078029008A9087801900299019881425C
:1082000001DD019802900020F8490870487008A824
:1082100000790A2868D1002006905DE006984100A8
:1082200040180C30A11C085C012807DB06984100AF
:1082300040180C30A11C085C082803DD0120EB4924
:10824000487050E00698410040180D30A11C085CB1
:108250000007000F09280FDC0698410040180D3078
:10826000A11C085C312807DC0698410040180D303D
:10827000A11C085C002801D1012000E0002000289A
:108280001ED10698410040180E30A11C085C000762
:10829000000F09280FDC0698410040180E30A11C81
:1082A000085C122807DC0698410040180E30A11C1B
:1082B000085C002801D1012000E00020002803D044
:1082C0000120CA4948700EE00698401CC749087052
:1082D0000698401CC1B20691032102980DF0B1FA34
:1082E000069988429ADC00BF08A800790B2858D16B
:1082F000002006904DE00698410040180C30A11C6B
:10830000085C012807DB0698410040180C30A11CCE
:10831000085C042803DD0120B449487040E0069859
:10832000410040180D30A11C085C0007000F09280F
:1083300007DC0698410040180D30A11C085C592844
:1083400001DD012000E00020002816D10698410040
:1083500040180E30A11C085C0007000F092807DC3C
:108360000698410040180E30A11C085C232801DD4E
:10837000012000E00020002803D001209B49487024
:108380000EE00698401C994908700698401CC1B23E
:108390000691032102980DF054FA06998842AADC4E
:1083A00000BF92484078012805D1B07A40084000CB
:1083B000401CB07205E4002537E08C480078401E70
:1083C000410040180C30A11C085C884909784A001B
:1083D00089180C316A00AA188918A21C50548348C5
:1083E0000078401E410040180D30A11C095C7F48F8
:1083F0000078420080180D306A00AA188018A21C6C
:1084000011547A480078401E410040180E30A11CDB
:10841000095C76480078420080180E306A00AA187D
:108420008018A21C1154681CC5B2704800780E2137
:10843000081AA842C1DC08A8C0782D2830D108A8A5
:10844000017820460E30FBF7EFFB014608A80278C2
:108450000C32A01C815408A80078401CC3B20A98B2
:1084600081B222460E32A020009104F05DFA08A8E5
:1084700003780A9881B222463432A020009104F099
:1084800085FA002805D0B07A40084000401CB07240
:10849000CAE55748007804218843001D54490870F4
:1084A0005348007804218843001D514908702FE18A
:1084B0005BE008A803780A9881B222460E32A02019
:1084C000009103F0C3F94A48007804218843001D55
:1084D000474908701CE147480DF004FA46498842B4
:1084E0000DD044480DF0FEF94349491C884206D09E
:1084F00040480DF0F7F94049891C88420AD108A884
:1085000003780A9881B222460E32A020009104F02E
:108510000BFA29E037480DF0E5F93849884223D1B4
:10852000A07BFBF7FCFB32480078C006C00F07D1E8
:10853000B07A40084000401CB07275E516E0E1E0FA
:108540002B480078C006C00F02D0C8202C49087004
:10855000A07B2649087008460078487002230A4626
:108560002849A02004F0E0F9D2E0D1E021480DF044
:10857000B9F9254988424FD1002507E00F20411B5A
:10858000A01C405C21494855681CC5B2042DF5DB90
:10859000A17CE27C120288181C49091D0DF0ACF97F
:1085A000217D627D120200E049E0881817490831F8
:1085B0000DF0A2F9154808300DF094F93C21414323
:1085C00000911249083100980DF096F90C210F48DE
:1085D000FBF72AFB0D4908730D230A460C49A0201E
:1085E00004F0A2F90A200B49088027E03E01002090
:1085F00029000020340100200112000403070004B8
:10860000430000203E1B00000301FF046709002017
:108610007E2400009A000020FD480DF063F9FD491A
:1086200088420BD1A07BFC490870FC490870487057
:1086300002230A46FA49A02004F076F968E001F026
:1086400030FC0020F7498860F748F649803188619E
:108650000020F6490860F648C06A4004400CF4491E
:10866000C86208F042F81621F248FBF7B0FE172363
:10867000F04AF149A02004F057F908F036F8142127
:10868000EE48FBF7D1FAED49087515230A46EC4987
:10869000A02004F049F90422EA49EB48FBF702F96B
:1086A0001421EA48FBF7C0FAE84908751522E648A4
:1086B000001DFBF7F7F81421E4481530FBF7B4FA76
:1086C000E249153108751522DF481930FBF7EAF841
:1086D0000822DF49DC482E30FBF7E4F83621DA487F
:1086E000FBF7A2FAD849203188753723D64AFF21F3
:1086F000C731A02003F0AAF807F0F7FF03F062F9F2
:1087000000F0F3FCB07A02218843801CB072FDE3D4
:1087100000BF002060700FE22178C806C00EA11CC7
:10872000FCF7CDF9014668460174007C002805DDA0
:10873000B07A04218843001DB072E7E3A07A1C28B8
:1087400030D004DC1A2807D01B2875D129E03A283C
:1087500057D03B2870D164E0E07A00280FD1BD48A3
:1087600000793A2805D01A20BA49087048708870F4
:1087700016E0B07A02218843801CB072C6E3E07A2A
:1087800001280DD1B34800793A2803D01A20B14905
:10879000087005E0B07A02218843801CB072B5E30E
:1087A00050E000BFE07A002816D1AA4800781A28C5
:1087B00007D0A84840781A2803D0A64880781A28FD
:1087C00004D11C20A3490870487088700AF055FB3A
:1087D00000200AF06CFC13E0E07A012810D19D48DB
:1087E00000781A2804D09C480078C007C00F02D037
:1087F0001C20984908700AF040FB01200AF057FC41
:1088000020E03A20934908719448407880218843B9
:108810008030924948701C208E49087048708870DA
:1088200010E0A07A8B4908718C48407880218843F9
:108830008A49487006E0FFE7B07A04218843001DAA
:10884000B07263E300BF07218248FBF7EDF981496D
:10885000C87108230A4672490D39A02002F0F6FFBC
:1088600001237D4A6E490F39A02002F0EFFF00205E
:10887000607061E1307B8007C00F03D1307BC0079F
:10888000C00F02D06078042805D0B07A0221884356
:10889000801CB0723AE300251FE0A01C405D9928BF
:1088A00019D00421A01CFBF7BFF9A0710523A21C5D
:1088B0006B49A02004F038F80423A21C6849A020CA
:1088C00004F064F8002805D0B07A40084000401C4D
:1088D000B072EFE303E0681CC5B2042DDDDB00BF1E
:1088E000042D06DB5F480068002802D101200CF04F
:1088F00007FD0A207074307B8007C00F02D0002073
:10890000607000E0EDE317E160780C2805D0B07AE4
:1089100040084000401CB072CCE3A079022802D18C
:10892000A079042805D0B07A04218843001DB072D4
:10893000C0E32178C806C00EA11DFCF7C0F80146AF
:1089400068460174007C012805D1B07A40084000D7
:10895000401CB072AEE36846007C022805D1B07AB4
:1089600004218843001DB072A4E300BFA07A02284E
:1089700003D13B48401D3C490880A07A042803D11C
:1089800037480A3038490880042120460A30FBF76E
:108990004BF9A073052322460A3233480188A020F0
:1089A00003F0C2FF0423224616322F480188A0207C
:1089B00003F0ECFF002805D0B07A40084000401CCE
:1089C000B07277E3042221460A31A01CFAF76AFF4D
:1089D00004206070B0E06078012805D0B07A4008CB
:1089E0004000401CB07265E3707B0007400F012817
:1089F00051D1A078FBF793F91C480078C006C00F4E
:108A000036D1B07A40084000401CB07252E30000FA
:108A1000340100200105FF04240200208B02002005
:108A20002215000000380140A62700000016014072
:108A300000F00040530700205A240000AA0E002036
:108A4000D21300005901002054020020800E0020A3
:108A50001F000020E1000020D9000020D7000020E6
:108A60004B1B00003C000020420100202900002098
:108A7000A17868460174017C4174022304AAFE496E
:108A8000A02003F051FFFD480078C006C00F02D0BF
:108A9000C820FB490870012060704DE0307BC007A2
:108AA000C00F02D06078062805D0B07A0221884332
:108AB000801CB072FEE20621A01C08F061F80028BC
:108AC00005D0B07A40084000401CB072F2E2A078B5
:108AD000EC490870E07848702079887060790871F6
